{
  "_format": "hh-sol-artifact-1",
  "contractName": "Decentratwitter",
  "sourceName": "src/backend/contracts/Decentratwitter.sol",
  "abi": [
    {
      "inputs": [],
      "stateMutability": "nonpayable",
      "type": "constructor"
    },
    {
      "anonymous": false,
      "inputs": [
        {
          "indexed": true,
          "internalType": "address",
          "name": "owner",
          "type": "address"
        },
        {
          "indexed": true,
          "internalType": "address",
          "name": "approved",
          "type": "address"
        },
        {
          "indexed": true,
          "internalType": "uint256",
          "name": "tokenId",
          "type": "uint256"
        }
      ],
      "name": "Approval",
      "type": "event"
    },
    {
      "anonymous": false,
      "inputs": [
        {
          "indexed": true,
          "internalType": "address",
          "name": "owner",
          "type": "address"
        },
        {
          "indexed": true,
          "internalType": "address",
          "name": "operator",
          "type": "address"
        },
        {
          "indexed": false,
          "internalType": "bool",
          "name": "approved",
          "type": "bool"
        }
      ],
      "name": "ApprovalForAll",
      "type": "event"
    },
    {
      "anonymous": false,
      "inputs": [
        {
          "indexed": false,
          "internalType": "uint256",
          "name": "id",
          "type": "uint256"
        },
        {
          "indexed": false,
          "internalType": "string",
          "name": "hash",
          "type": "string"
        },
        {
          "indexed": false,
          "internalType": "uint256",
          "name": "tipAmount",
          "type": "uint256"
        },
        {
          "indexed": false,
          "internalType": "address payable",
          "name": "author",
          "type": "address"
        }
      ],
      "name": "PostCreated",
      "type": "event"
    },
    {
      "anonymous": false,
      "inputs": [
        {
          "indexed": false,
          "internalType": "uint256",
          "name": "id",
          "type": "uint256"
        },
        {
          "indexed": false,
          "internalType": "string",
          "name": "hash",
          "type": "string"
        },
        {
          "indexed": false,
          "internalType": "uint256",
          "name": "tipAmount",
          "type": "uint256"
        },
        {
          "indexed": false,
          "internalType": "address payable",
          "name": "author",
          "type": "address"
        }
      ],
      "name": "PostTipped",
      "type": "event"
    },
    {
      "anonymous": false,
      "inputs": [
        {
          "indexed": true,
          "internalType": "address",
          "name": "from",
          "type": "address"
        },
        {
          "indexed": true,
          "internalType": "address",
          "name": "to",
          "type": "address"
        },
        {
          "indexed": true,
          "internalType": "uint256",
          "name": "tokenId",
          "type": "uint256"
        }
      ],
      "name": "Transfer",
      "type": "event"
    },
    {
      "inputs": [
        {
          "internalType": "address",
          "name": "to",
          "type": "address"
        },
        {
          "internalType": "uint256",
          "name": "tokenId",
          "type": "uint256"
        }
      ],
      "name": "approve",
      "outputs": [],
      "stateMutability": "nonpayable",
      "type": "function"
    },
    {
      "inputs": [
        {
          "internalType": "address",
          "name": "owner",
          "type": "address"
        }
      ],
      "name": "balanceOf",
      "outputs": [
        {
          "internalType": "uint256",
          "name": "",
          "type": "uint256"
        }
      ],
      "stateMutability": "view",
      "type": "function"
    },
    {
      "inputs": [],
      "name": "getAllPosts",
      "outputs": [
        {
          "components": [
            {
              "internalType": "uint256",
              "name": "id",
              "type": "uint256"
            },
            {
              "internalType": "string",
              "name": "hash",
              "type": "string"
            },
            {
              "internalType": "uint256",
              "name": "tipAmount",
              "type": "uint256"
            },
            {
              "internalType": "address payable",
              "name": "author",
              "type": "address"
            }
          ],
          "internalType": "struct Decentratwitter.Post[]",
          "name": "_posts",
          "type": "tuple[]"
        }
      ],
      "stateMutability": "view",
      "type": "function"
    },
    {
      "inputs": [
        {
          "internalType": "uint256",
          "name": "tokenId",
          "type": "uint256"
        }
      ],
      "name": "getApproved",
      "outputs": [
        {
          "internalType": "address",
          "name": "",
          "type": "address"
        }
      ],
      "stateMutability": "view",
      "type": "function"
    },
    {
      "inputs": [],
      "name": "getMyNfts",
      "outputs": [
        {
          "internalType": "uint256[]",
          "name": "_ids",
          "type": "uint256[]"
        }
      ],
      "stateMutability": "view",
      "type": "function"
    },
    {
      "inputs": [
        {
          "internalType": "address",
          "name": "owner",
          "type": "address"
        },
        {
          "internalType": "address",
          "name": "operator",
          "type": "address"
        }
      ],
      "name": "isApprovedForAll",
      "outputs": [
        {
          "internalType": "bool",
          "name": "",
          "type": "bool"
        }
      ],
      "stateMutability": "view",
      "type": "function"
    },
    {
      "inputs": [
        {
          "internalType": "string",
          "name": "_tokenURI",
          "type": "string"
        }
      ],
      "name": "mint",
      "outputs": [
        {
          "internalType": "uint256",
          "name": "",
          "type": "uint256"
        }
      ],
      "stateMutability": "nonpayable",
      "type": "function"
    },
    {
      "inputs": [],
      "name": "name",
      "outputs": [
        {
          "internalType": "string",
          "name": "",
          "type": "string"
        }
      ],
      "stateMutability": "view",
      "type": "function"
    },
    {
      "inputs": [
        {
          "internalType": "uint256",
          "name": "tokenId",
          "type": "uint256"
        }
      ],
      "name": "ownerOf",
      "outputs": [
        {
          "internalType": "address",
          "name": "",
          "type": "address"
        }
      ],
      "stateMutability": "view",
      "type": "function"
    },
    {
      "inputs": [],
      "name": "postCount",
      "outputs": [
        {
          "internalType": "uint256",
          "name": "",
          "type": "uint256"
        }
      ],
      "stateMutability": "view",
      "type": "function"
    },
    {
      "inputs": [
        {
          "internalType": "uint256",
          "name": "",
          "type": "uint256"
        }
      ],
      "name": "posts",
      "outputs": [
        {
          "internalType": "uint256",
          "name": "id",
          "type": "uint256"
        },
        {
          "internalType": "string",
          "name": "hash",
          "type": "string"
        },
        {
          "internalType": "uint256",
          "name": "tipAmount",
          "type": "uint256"
        },
        {
          "internalType": "address payable",
          "name": "author",
          "type": "address"
        }
      ],
      "stateMutability": "view",
      "type": "function"
    },
    {
      "inputs": [
        {
          "internalType": "address",
          "name": "",
          "type": "address"
        }
      ],
      "name": "profiles",
      "outputs": [
        {
          "internalType": "uint256",
          "name": "",
          "type": "uint256"
        }
      ],
      "stateMutability": "view",
      "type": "function"
    },
    {
      "inputs": [
        {
          "internalType": "address",
          "name": "from",
          "type": "address"
        },
        {
          "internalType": "address",
          "name": "to",
          "type": "address"
        },
        {
          "internalType": "uint256",
          "name": "tokenId",
          "type": "uint256"
        }
      ],
      "name": "safeTransferFrom",
      "outputs": [],
      "stateMutability": "nonpayable",
      "type": "function"
    },
    {
      "inputs": [
        {
          "internalType": "address",
          "name": "from",
          "type": "address"
        },
        {
          "internalType": "address",
          "name": "to",
          "type": "address"
        },
        {
          "internalType": "uint256",
          "name": "tokenId",
          "type": "uint256"
        },
        {
          "internalType": "bytes",
          "name": "_data",
          "type": "bytes"
        }
      ],
      "name": "safeTransferFrom",
      "outputs": [],
      "stateMutability": "nonpayable",
      "type": "function"
    },
    {
      "inputs": [
        {
          "internalType": "address",
          "name": "operator",
          "type": "address"
        },
        {
          "internalType": "bool",
          "name": "approved",
          "type": "bool"
        }
      ],
      "name": "setApprovalForAll",
      "outputs": [],
      "stateMutability": "nonpayable",
      "type": "function"
    },
    {
      "inputs": [
        {
          "internalType": "uint256",
          "name": "_id",
          "type": "uint256"
        }
      ],
      "name": "setProfile",
      "outputs": [],
      "stateMutability": "nonpayable",
      "type": "function"
    },
    {
      "inputs": [
        {
          "internalType": "bytes4",
          "name": "interfaceId",
          "type": "bytes4"
        }
      ],
      "name": "supportsInterface",
      "outputs": [
        {
          "internalType": "bool",
          "name": "",
          "type": "bool"
        }
      ],
      "stateMutability": "view",
      "type": "function"
    },
    {
      "inputs": [],
      "name": "symbol",
      "outputs": [
        {
          "internalType": "string",
          "name": "",
          "type": "string"
        }
      ],
      "stateMutability": "view",
      "type": "function"
    },
    {
      "inputs": [
        {
          "internalType": "uint256",
          "name": "_id",
          "type": "uint256"
        }
      ],
      "name": "tipPostOwner",
      "outputs": [],
      "stateMutability": "payable",
      "type": "function"
    },
    {
      "inputs": [],
      "name": "tokenCount",
      "outputs": [
        {
          "internalType": "uint256",
          "name": "",
          "type": "uint256"
        }
      ],
      "stateMutability": "view",
      "type": "function"
    },
    {
      "inputs": [
        {
          "internalType": "uint256",
          "name": "tokenId",
          "type": "uint256"
        }
      ],
      "name": "tokenURI",
      "outputs": [
        {
          "internalType": "string",
          "name": "",
          "type": "string"
        }
      ],
      "stateMutability": "view",
      "type": "function"
    },
    {
      "inputs": [
        {
          "internalType": "address",
          "name": "from",
          "type": "address"
        },
        {
          "internalType": "address",
          "name": "to",
          "type": "address"
        },
        {
          "internalType": "uint256",
          "name": "tokenId",
          "type": "uint256"
        }
      ],
      "name": "transferFrom",
      "outputs": [],
      "stateMutability": "nonpayable",
      "type": "function"
    },
    {
      "inputs": [
        {
          "internalType": "string",
          "name": "_postHash",
          "type": "string"
        }
      ],
      "name": "uploadPost",
      "outputs": [],
      "stateMutability": "nonpayable",
      "type": "function"
    }
  ],
  "bytecode": "0x60806040523480156200001157600080fd5b506040518060400160405280600f81526020017f446563656e7472617477697474657200000000000000000000000000000000008152506040518060400160405280600281526020017f4454000000000000000000000000000000000000000000000000000000000000815250816000908051906020019062000096929190620000b8565b508060019080519060200190620000af929190620000b8565b505050620001cd565b828054620000c69062000168565b90600052602060002090601f016020900481019282620000ea576000855562000136565b82601f106200010557805160ff191683800117855562000136565b8280016001018555821562000136579182015b828111156200013557825182559160200191906001019062000118565b5b50905062000145919062000149565b5090565b5b80821115620001645760008160009055506001016200014a565b5090565b600060028204905060018216806200018157607f821691505b602082108114156200019857620001976200019e565b5b50919050565b7f4e487b7100000000000000000000000000000000000000000000000000000000600052602260045260246000fd5b613f4480620001dd6000396000f3fe6080604052600436106101405760003560e01c806370a08231116100b6578063bbe156271161006f578063bbe1562714610471578063bdd05adb146104ae578063c87b56dd146104d7578063d6313c0614610514578063d85d3d2714610530578063e985e9c51461056d57610140565b806370a082311461036357806385d3cb37146103a057806395d89b41146103c95780639f181b5e146103f4578063a22cb4651461041f578063b88d4fde1461044857610140565b80630b1e7f83116101085780630b1e7f831461023e57806317906c2e1461027e57806323b872dd146102a957806330561100146102d257806342842e0e146102fd5780636352211e1461032657610140565b806301ffc9a714610145578063047b07bf1461018257806306fdde03146101ad578063081812fc146101d8578063095ea7b314610215575b600080fd5b34801561015157600080fd5b5061016c600480360381019061016791906129a9565b6105aa565b60405161017991906130ff565b60405180910390f35b34801561018e57600080fd5b5061019761068c565b6040516101a491906130dd565b60405180910390f35b3480156101b957600080fd5b506101c26107dc565b6040516101cf919061311a565b60405180910390f35b3480156101e457600080fd5b506101ff60048036038101906101fa9190612a81565b61086e565b60405161020c9190613054565b60405180910390f35b34801561022157600080fd5b5061023c6004803603810190610237919061296d565b6108f3565b005b34801561024a57600080fd5b5061026560048036038101906102609190612a81565b610a0b565b6040516102759493929190613443565b60405180910390f35b34801561028a57600080fd5b50610293610ae3565b6040516102a091906133dc565b60405180910390f35b3480156102b557600080fd5b506102d060048036038101906102cb9190612867565b610ae9565b005b3480156102de57600080fd5b506102e7610b49565b6040516102f491906130bb565b60405180910390f35b34801561030957600080fd5b50610324600480360381019061031f9190612867565b610d57565b005b34801561033257600080fd5b5061034d60048036038101906103489190612a81565b610d77565b60405161035a9190613054565b60405180910390f35b34801561036f57600080fd5b5061038a60048036038101906103859190612802565b610e29565b60405161039791906133dc565b60405180910390f35b3480156103ac57600080fd5b506103c760048036038101906103c29190612a81565b610ee1565b005b3480156103d557600080fd5b506103de610f9e565b6040516103eb919061311a565b60405180910390f35b34801561040057600080fd5b50610409611030565b60405161041691906133dc565b60405180910390f35b34801561042b57600080fd5b5061044660048036038101906104419190612931565b611036565b005b34801561045457600080fd5b5061046f600480360381019061046a91906128b6565b61104c565b005b34801561047d57600080fd5b5061049860048036038101906104939190612802565b6110ae565b6040516104a591906133dc565b60405180910390f35b3480156104ba57600080fd5b506104d560048036038101906104d09190612a40565b6110c6565b005b3480156104e357600080fd5b506104fe60048036038101906104f99190612a81565b61127a565b60405161050b919061311a565b60405180910390f35b61052e60048036038101906105299190612a81565b6113cc565b005b34801561053c57600080fd5b50610557600480360381019061055291906129fb565b6116ee565b60405161056491906133dc565b60405180910390f35b34801561057957600080fd5b50610594600480360381019061058f919061282b565b61176f565b6040516105a191906130ff565b60405180910390f35b60007f80ac58cd000000000000000000000000000000000000000000000000000000007bffffffffffffffffffffffffffffffffffffffffffffffffffffffff1916827bffffffffffffffffffffffffffffffffffffffffffffffffffffffff1916148061067557507f5b5e139f000000000000000000000000000000000000000000000000000000007bffffffffffffffffffffffffffffffffffffffffffffffffffffffff1916827bffffffffffffffffffffffffffffffffffffffffffffffffffffffff1916145b80610685575061068482611803565b5b9050919050565b606061069733610e29565b67ffffffffffffffff8111156106d6577f4e487b7100000000000000000000000000000000000000000000000000000000600052604160045260246000fd5b6040519080825280602002602001820160405280156107045781602001602082028036833780820191505090505b509050600080600754905060005b818110156107d6573373ffffffffffffffffffffffffffffffffffffffff1661074660018361074191906135dc565b610d77565b73ffffffffffffffffffffffffffffffffffffffff1614156107c35760018161076f91906135dc565b8484815181106107a8577f4e487b7100000000000000000000000000000000000000000000000000000000600052603260045260246000fd5b60200260200101818152505082806107bf906137d4565b9350505b80806107ce906137d4565b915050610712565b50505090565b6060600080546107eb90613771565b80601f016020809104026020016040519081016040528092919081815260200182805461081790613771565b80156108645780601f1061083957610100808354040283529160200191610864565b820191906000526020600020905b81548152906001019060200180831161084757829003601f168201915b5050505050905090565b60006108798261186d565b6108b8576040517f08c379a00000000000000000000000000000000000000000000000000000000081526004016108af906132fc565b60405180910390fd5b6004600083815260200190815260200160002060009054906101000a900473ffffffffffffffffffffffffffffffffffffffff169050919050565b60006108fe82610d77565b90508073ffffffffffffffffffffffffffffffffffffffff168373ffffffffffffffffffffffffffffffffffffffff16141561096f576040517f08c379a00000000000000000000000000000000000000000000000000000000081526004016109669061333c565b60405180910390fd5b8073ffffffffffffffffffffffffffffffffffffffff1661098e6118d9565b73ffffffffffffffffffffffffffffffffffffffff1614806109bd57506109bc816109b76118d9565b61176f565b5b6109fc576040517f08c379a00000000000000000000000000000000000000000000000000000000081526004016109f3906131fc565b60405180910390fd5b610a0683836118e1565b505050565b6009602052806000526040600020600091509050806000015490806001018054610a3490613771565b80601f0160208091040260200160405190810160405280929190818152602001828054610a6090613771565b8015610aad5780601f10610a8257610100808354040283529160200191610aad565b820191906000526020600020905b815481529060010190602001808311610a9057829003601f168201915b5050505050908060020154908060030160009054906101000a900473ffffffffffffffffffffffffffffffffffffffff16905084565b60085481565b610afa610af46118d9565b8261199a565b610b39576040517f08c379a0000000000000000000000000000000000000000000000000000000008152600401610b30906133bc565b60405180910390fd5b610b44838383611a78565b505050565b606060085467ffffffffffffffff811115610b8d577f4e487b7100000000000000000000000000000000000000000000000000000000600052604160045260246000fd5b604051908082528060200260200182016040528015610bc657816020015b610bb361259e565b815260200190600190039081610bab5790505b50905060005b600854811015610d535760096000600183610be791906135dc565b815260200190815260200160002060405180608001604052908160008201548152602001600182018054610c1a90613771565b80601f0160208091040260200160405190810160405280929190818152602001828054610c4690613771565b8015610c935780601f10610c6857610100808354040283529160200191610c93565b820191906000526020600020905b815481529060010190602001808311610c7657829003601f168201915b50505050508152602001600282015481526020016003820160009054906101000a900473ffffffffffffffffffffffffffffffffffffffff1673ffffffffffffffffffffffffffffffffffffffff1673ffffffffffffffffffffffffffffffffffffffff1681525050828281518110610d35577f4e487b7100000000000000000000000000000000000000000000000000000000600052603260045260246000fd5b60200260200101819052508080610d4b906137d4565b915050610bcc565b5090565b610d728383836040518060200160405280600081525061104c565b505050565b6000806002600084815260200190815260200160002060009054906101000a900473ffffffffffffffffffffffffffffffffffffffff169050600073ffffffffffffffffffffffffffffffffffffffff168173ffffffffffffffffffffffffffffffffffffffff161415610e20576040517f08c379a0000000000000000000000000000000000000000000000000000000008152600401610e179061325c565b60405180910390fd5b80915050919050565b60008073ffffffffffffffffffffffffffffffffffffffff168273ffffffffffffffffffffffffffffffffffffffff161415610e9a576040517f08c379a0000000000000000000000000000000000000000000000000000000008152600401610e919061323c565b60405180910390fd5b600360008373ffffffffffffffffffffffffffffffffffffffff1673ffffffffffffffffffffffffffffffffffffffff168152602001908152602001600020549050919050565b3373ffffffffffffffffffffffffffffffffffffffff16610f0182610d77565b73ffffffffffffffffffffffffffffffffffffffff1614610f57576040517f08c379a0000000000000000000000000000000000000000000000000000000008152600401610f4e9061335c565b60405180910390fd5b80600a60003373ffffffffffffffffffffffffffffffffffffffff1673ffffffffffffffffffffffffffffffffffffffff1681526020019081526020016000208190555050565b606060018054610fad90613771565b80601f0160208091040260200160405190810160405280929190818152602001828054610fd990613771565b80156110265780601f10610ffb57610100808354040283529160200191611026565b820191906000526020600020905b81548152906001019060200180831161100957829003601f168201915b5050505050905090565b60075481565b6110486110416118d9565b8383611cdf565b5050565b61105d6110576118d9565b8361199a565b61109c576040517f08c379a0000000000000000000000000000000000000000000000000000000008152600401611093906133bc565b60405180910390fd5b6110a884848484611e4c565b50505050565b600a6020528060005260406000206000915090505481565b60006110d133610e29565b11611111576040517f08c379a00000000000000000000000000000000000000000000000000000000081526004016111089061339c565b60405180910390fd5b6000815111611155576040517f08c379a000000000000000000000000000000000000000000000000000000000815260040161114c9061321c565b60405180910390fd5b60086000815480929190611168906137d4565b919050555060405180608001604052806008548152602001828152602001600081526020013373ffffffffffffffffffffffffffffffffffffffff168152506009600060085481526020019081526020016000206000820151816000015560208201518160010190805190602001906111e29291906125dc565b506040820151816002015560608201518160030160006101000a81548173ffffffffffffffffffffffffffffffffffffffff021916908373ffffffffffffffffffffffffffffffffffffffff1602179055509050507fc66336337a24e513f909b3b25119854dba8385d51307dbc7d31d1b2805e19c7e6008548260003360405161126f94939291906133f7565b60405180910390a150565b60606112858261186d565b6112c4576040517f08c379a00000000000000000000000000000000000000000000000000000000081526004016112bb906132dc565b60405180910390fd5b60006006600084815260200190815260200160002080546112e490613771565b80601f016020809104026020016040519081016040528092919081815260200182805461131090613771565b801561135d5780601f106113325761010080835404028352916020019161135d565b820191906000526020600020905b81548152906001019060200180831161134057829003601f168201915b50505050509050600061136e611ea8565b90506000815114156113845781925050506113c7565b6000825111156113b95780826040516020016113a1929190613030565b604051602081830303815290604052925050506113c7565b6113c284611ebf565b925050505b919050565b6000811180156113de57506008548111155b61141d576040517f08c379a00000000000000000000000000000000000000000000000000000000081526004016114149061329c565b60405180910390fd5b6000600960008381526020019081526020016000206040518060800160405290816000820154815260200160018201805461145790613771565b80601f016020809104026020016040519081016040528092919081815260200182805461148390613771565b80156114d05780601f106114a5576101008083540402835291602001916114d0565b820191906000526020600020905b8154815290600101906020018083116114b357829003601f168201915b50505050508152602001600282015481526020016003820160009054906101000a900473ffffffffffffffffffffffffffffffffffffffff1673ffffffffffffffffffffffffffffffffffffffff1673ffffffffffffffffffffffffffffffffffffffff168152505090503373ffffffffffffffffffffffffffffffffffffffff16816060015173ffffffffffffffffffffffffffffffffffffffff1614156115ae576040517f08c379a00000000000000000000000000000000000000000000000000000000081526004016115a59061337c565b60405180910390fd5b806060015173ffffffffffffffffffffffffffffffffffffffff166108fc349081150290604051600060405180830381858888f193505050501580156115f8573d6000803e3d6000fd5b50348160400181815161160b91906135dc565b91508181525050806009600084815260200190815260200160002060008201518160000155602082015181600101908051906020019061164c9291906125dc565b506040820151816002015560608201518160030160006101000a81548173ffffffffffffffffffffffffffffffffffffffff021916908373ffffffffffffffffffffffffffffffffffffffff1602179055509050507f20988fe475351e75813672abada1dddb7ac67cbbeb81e61e1160b8329d8cdf1c828260200151836040015184606001516040516116e29493929190613443565b60405180910390a15050565b600060076000815480929190611703906137d4565b919050555061171433600754611f66565b61176460075484848080601f016020809104026020016040519081016040528093929190818152602001838380828437600081840152601f19601f82011690508083019250505050505050611f84565b600754905092915050565b6000600560008473ffffffffffffffffffffffffffffffffffffffff1673ffffffffffffffffffffffffffffffffffffffff16815260200190815260200160002060008373ffffffffffffffffffffffffffffffffffffffff1673ffffffffffffffffffffffffffffffffffffffff16815260200190815260200160002060009054906101000a900460ff16905092915050565b60007f01ffc9a7000000000000000000000000000000000000000000000000000000007bffffffffffffffffffffffffffffffffffffffffffffffffffffffff1916827bffffffffffffffffffffffffffffffffffffffffffffffffffffffff1916149050919050565b60008073ffffffffffffffffffffffffffffffffffffffff166002600084815260200190815260200160002060009054906101000a900473ffffffffffffffffffffffffffffffffffffffff1673ffffffffffffffffffffffffffffffffffffffff1614159050919050565b600033905090565b816004600083815260200190815260200160002060006101000a81548173ffffffffffffffffffffffffffffffffffffffff021916908373ffffffffffffffffffffffffffffffffffffffff160217905550808273ffffffffffffffffffffffffffffffffffffffff1661195483610d77565b73ffffffffffffffffffffffffffffffffffffffff167f8c5be1e5ebec7d5bd14f71427d1e84f3dd0314c0f7b2291e5b200ac8c7c3b92560405160405180910390a45050565b60006119a58261186d565b6119e4576040517f08c379a00000000000000000000000000000000000000000000000000000000081526004016119db906131dc565b60405180910390fd5b60006119ef83610d77565b90508073ffffffffffffffffffffffffffffffffffffffff168473ffffffffffffffffffffffffffffffffffffffff161480611a5e57508373ffffffffffffffffffffffffffffffffffffffff16611a468461086e565b73ffffffffffffffffffffffffffffffffffffffff16145b80611a6f5750611a6e818561176f565b5b91505092915050565b8273ffffffffffffffffffffffffffffffffffffffff16611a9882610d77565b73ffffffffffffffffffffffffffffffffffffffff1614611aee576040517f08c379a0000000000000000000000000000000000000000000000000000000008152600401611ae59061315c565b60405180910390fd5b600073ffffffffffffffffffffffffffffffffffffffff168273ffffffffffffffffffffffffffffffffffffffff161415611b5e576040517f08c379a0000000000000000000000000000000000000000000000000000000008152600401611b559061319c565b60405180910390fd5b611b69838383611ff8565b611b746000826118e1565b6001600360008573ffffffffffffffffffffffffffffffffffffffff1673ffffffffffffffffffffffffffffffffffffffff1681526020019081526020016000206000828254611bc49190613663565b925050819055506001600360008473ffffffffffffffffffffffffffffffffffffffff1673ffffffffffffffffffffffffffffffffffffffff1681526020019081526020016000206000828254611c1b91906135dc565b92505081905550816002600083815260200190815260200160002060006101000a81548173ffffffffffffffffffffffffffffffffffffffff021916908373ffffffffffffffffffffffffffffffffffffffff160217905550808273ffffffffffffffffffffffffffffffffffffffff168473ffffffffffffffffffffffffffffffffffffffff167fddf252ad1be2c89b69c2b068fc378daa952ba7f163c4a11628f55a4df523b3ef60405160405180910390a4611cda838383611ffd565b505050565b8173ffffffffffffffffffffffffffffffffffffffff168373ffffffffffffffffffffffffffffffffffffffff161415611d4e576040517f08c379a0000000000000000000000000000000000000000000000000000000008152600401611d45906131bc565b60405180910390fd5b80600560008573ffffffffffffffffffffffffffffffffffffffff1673ffffffffffffffffffffffffffffffffffffffff16815260200190815260200160002060008473ffffffffffffffffffffffffffffffffffffffff1673ffffffffffffffffffffffffffffffffffffffff16815260200190815260200160002060006101000a81548160ff0219169083151502179055508173ffffffffffffffffffffffffffffffffffffffff168373ffffffffffffffffffffffffffffffffffffffff167f17307eab39ab6107e8899845ad3d59bd9653f200f220920489ca2b5937696c3183604051611e3f91906130ff565b60405180910390a3505050565b611e57848484611a78565b611e6384848484612002565b611ea2576040517f08c379a0000000000000000000000000000000000000000000000000000000008152600401611e999061313c565b60405180910390fd5b50505050565b606060405180602001604052806000815250905090565b6060611eca8261186d565b611f09576040517f08c379a0000000000000000000000000000000000000000000000000000000008152600401611f009061331c565b60405180910390fd5b6000611f13611ea8565b90506000815111611f335760405180602001604052806000815250611f5e565b80611f3d84612199565b604051602001611f4e929190613030565b6040516020818303038152906040525b915050919050565b611f80828260405180602001604052806000815250612346565b5050565b611f8d8261186d565b611fcc576040517f08c379a0000000000000000000000000000000000000000000000000000000008152600401611fc39061327c565b60405180910390fd5b80600660008481526020019081526020016000209080519060200190611ff39291906125dc565b505050565b505050565b505050565b60006120238473ffffffffffffffffffffffffffffffffffffffff166123a1565b1561218c578373ffffffffffffffffffffffffffffffffffffffff1663150b7a0261204c6118d9565b8786866040518563ffffffff1660e01b815260040161206e949392919061306f565b602060405180830381600087803b15801561208857600080fd5b505af19250505080156120b957506040513d601f19601f820116820180604052508101906120b691906129d2565b60015b61213c573d80600081146120e9576040519150601f19603f3d011682016040523d82523d6000602084013e6120ee565b606091505b50600081511415612134576040517f08c379a000000000000000000000000000000000000000000000000000000000815260040161212b9061313c565b60405180910390fd5b805181602001fd5b63150b7a0260e01b7bffffffffffffffffffffffffffffffffffffffffffffffffffffffff1916817bffffffffffffffffffffffffffffffffffffffffffffffffffffffff191614915050612191565b600190505b949350505050565b606060008214156121e1576040518060400160405280600181526020017f30000000000000000000000000000000000000000000000000000000000000008152509050612341565b600082905060005b600082146122135780806121fc906137d4565b915050600a8261220c9190613632565b91506121e9565b60008167ffffffffffffffff811115612255577f4e487b7100000000000000000000000000000000000000000000000000000000600052604160045260246000fd5b6040519080825280601f01601f1916602001820160405280156122875781602001600182028036833780820191505090505b5090505b6000851461233a576001826122a09190613663565b9150600a856122af919061381d565b60306122bb91906135dc565b60f81b8183815181106122f7577f4e487b7100000000000000000000000000000000000000000000000000000000600052603260045260246000fd5b60200101907effffffffffffffffffffffffffffffffffffffffffffffffffffffffffffff1916908160001a905350600a856123339190613632565b945061228b565b8093505050505b919050565b61235083836123c4565b61235d6000848484612002565b61239c576040517f08c379a00000000000000000000000000000000000000000000000000000000081526004016123939061313c565b60405180910390fd5b505050565b6000808273ffffffffffffffffffffffffffffffffffffffff163b119050919050565b600073ffffffffffffffffffffffffffffffffffffffff168273ffffffffffffffffffffffffffffffffffffffff161415612434576040517f08c379a000000000000000000000000000000000000000000000000000000000815260040161242b906132bc565b60405180910390fd5b61243d8161186d565b1561247d576040517f08c379a00000000000000000000000000000000000000000000000000000000081526004016124749061317c565b60405180910390fd5b61248960008383611ff8565b6001600360008473ffffffffffffffffffffffffffffffffffffffff1673ffffffffffffffffffffffffffffffffffffffff16815260200190815260200160002060008282546124d991906135dc565b92505081905550816002600083815260200190815260200160002060006101000a81548173ffffffffffffffffffffffffffffffffffffffff021916908373ffffffffffffffffffffffffffffffffffffffff160217905550808273ffffffffffffffffffffffffffffffffffffffff16600073ffffffffffffffffffffffffffffffffffffffff167fddf252ad1be2c89b69c2b068fc378daa952ba7f163c4a11628f55a4df523b3ef60405160405180910390a461259a60008383611ffd565b5050565b6040518060800160405280600081526020016060815260200160008152602001600073ffffffffffffffffffffffffffffffffffffffff1681525090565b8280546125e890613771565b90600052602060002090601f01602090048101928261260a5760008555612651565b82601f1061262357805160ff1916838001178555612651565b82800160010185558215612651579182015b82811115612650578251825591602001919060010190612635565b5b50905061265e9190612662565b5090565b5b8082111561267b576000816000905550600101612663565b5090565b600061269261268d846134b4565b61348f565b9050828152602081018484840111156126aa57600080fd5b6126b584828561372f565b509392505050565b60006126d06126cb846134e5565b61348f565b9050828152602081018484840111156126e857600080fd5b6126f384828561372f565b509392505050565b60008135905061270a81613eb2565b92915050565b60008135905061271f81613ec9565b92915050565b60008135905061273481613ee0565b92915050565b60008151905061274981613ee0565b92915050565b600082601f83011261276057600080fd5b813561277084826020860161267f565b91505092915050565b60008083601f84011261278b57600080fd5b8235905067ffffffffffffffff8111156127a457600080fd5b6020830191508360018202830111156127bc57600080fd5b9250929050565b600082601f8301126127d457600080fd5b81356127e48482602086016126bd565b91505092915050565b6000813590506127fc81613ef7565b92915050565b60006020828403121561281457600080fd5b6000612822848285016126fb565b91505092915050565b6000806040838503121561283e57600080fd5b600061284c858286016126fb565b925050602061285d858286016126fb565b9150509250929050565b60008060006060848603121561287c57600080fd5b600061288a868287016126fb565b935050602061289b868287016126fb565b92505060406128ac868287016127ed565b9150509250925092565b600080600080608085870312156128cc57600080fd5b60006128da878288016126fb565b94505060206128eb878288016126fb565b93505060406128fc878288016127ed565b925050606085013567ffffffffffffffff81111561291957600080fd5b6129258782880161274f565b91505092959194509250565b6000806040838503121561294457600080fd5b6000612952858286016126fb565b925050602061296385828601612710565b9150509250929050565b6000806040838503121561298057600080fd5b600061298e858286016126fb565b925050602061299f858286016127ed565b9150509250929050565b6000602082840312156129bb57600080fd5b60006129c984828501612725565b91505092915050565b6000602082840312156129e457600080fd5b60006129f28482850161273a565b91505092915050565b60008060208385031215612a0e57600080fd5b600083013567ffffffffffffffff811115612a2857600080fd5b612a3485828601612779565b92509250509250929050565b600060208284031215612a5257600080fd5b600082013567ffffffffffffffff811115612a6c57600080fd5b612a78848285016127c3565b91505092915050565b600060208284031215612a9357600080fd5b6000612aa1848285016127ed565b91505092915050565b6000612ab68383612faf565b905092915050565b6000612aca8383613012565b60208301905092915050565b612adf816136a9565b82525050565b612aee816136a9565b82525050565b612afd81613697565b82525050565b6000612b0e82613536565b612b18818561357c565b935083602082028501612b2a85613516565b8060005b85811015612b665784840389528151612b478582612aaa565b9450612b5283613562565b925060208a01995050600181019050612b2e565b50829750879550505050505092915050565b6000612b8382613541565b612b8d818561358d565b9350612b9883613526565b8060005b83811015612bc9578151612bb08882612abe565b9750612bbb8361356f565b925050600181019050612b9c565b5085935050505092915050565b612bdf816136bb565b82525050565b6000612bf08261354c565b612bfa818561359e565b9350612c0a81856020860161373e565b612c138161390a565b840191505092915050565b612c278161371d565b82525050565b6000612c3882613557565b612c4281856135af565b9350612c5281856020860161373e565b612c5b8161390a565b840191505092915050565b6000612c7182613557565b612c7b81856135c0565b9350612c8b81856020860161373e565b612c948161390a565b840191505092915050565b6000612caa82613557565b612cb481856135d1565b9350612cc481856020860161373e565b80840191505092915050565b6000612cdd6032836135c0565b9150612ce88261391b565b604082019050919050565b6000612d006025836135c0565b9150612d0b8261396a565b604082019050919050565b6000612d23601c836135c0565b9150612d2e826139b9565b602082019050919050565b6000612d466024836135c0565b9150612d51826139e2565b604082019050919050565b6000612d696019836135c0565b9150612d7482613a31565b602082019050919050565b6000612d8c602c836135c0565b9150612d9782613a5a565b604082019050919050565b6000612daf6038836135c0565b9150612dba82613aa9565b604082019050919050565b6000612dd26018836135c0565b9150612ddd82613af8565b602082019050919050565b6000612df5602a836135c0565b9150612e0082613b21565b604082019050919050565b6000612e186029836135c0565b9150612e2382613b70565b604082019050919050565b6000612e3b602e836135c0565b9150612e4682613bbf565b604082019050919050565b6000612e5e600f836135c0565b9150612e6982613c0e565b602082019050919050565b6000612e816020836135c0565b9150612e8c82613c37565b602082019050919050565b6000612ea46031836135c0565b9150612eaf82613c60565b604082019050919050565b6000612ec7602c836135c0565b9150612ed282613caf565b604082019050919050565b6000612eea602f836135c0565b9150612ef582613cfe565b604082019050919050565b6000612f0d6021836135c0565b9150612f1882613d4d565b604082019050919050565b6000612f306033836135c0565b9150612f3b82613d9c565b604082019050919050565b6000612f536018836135c0565b9150612f5e82613deb565b602082019050919050565b6000612f766026836135c0565b9150612f8182613e14565b604082019050919050565b6000612f996031836135c0565b9150612fa482613e63565b604082019050919050565b6000608083016000830151612fc76000860182613012565b5060208301518482036020860152612fdf8282612c2d565b9150506040830151612ff46040860182613012565b5060608301516130076060860182612ad6565b508091505092915050565b61301b81613713565b82525050565b61302a81613713565b82525050565b600061303c8285612c9f565b91506130488284612c9f565b91508190509392505050565b60006020820190506130696000830184612af4565b92915050565b60006080820190506130846000830187612af4565b6130916020830186612af4565b61309e6040830185613021565b81810360608301526130b08184612be5565b905095945050505050565b600060208201905081810360008301526130d58184612b03565b905092915050565b600060208201905081810360008301526130f78184612b78565b905092915050565b60006020820190506131146000830184612bd6565b92915050565b600060208201905081810360008301526131348184612c66565b905092915050565b6000602082019050818103600083015261315581612cd0565b9050919050565b6000602082019050818103600083015261317581612cf3565b9050919050565b6000602082019050818103600083015261319581612d16565b9050919050565b600060208201905081810360008301526131b581612d39565b9050919050565b600060208201905081810360008301526131d581612d5c565b9050919050565b600060208201905081810360008301526131f581612d7f565b9050919050565b6000602082019050818103600083015261321581612da2565b9050919050565b6000602082019050818103600083015261323581612dc5565b9050919050565b6000602082019050818103600083015261325581612de8565b9050919050565b6000602082019050818103600083015261327581612e0b565b9050919050565b6000602082019050818103600083015261329581612e2e565b9050919050565b600060208201905081810360008301526132b581612e51565b9050919050565b600060208201905081810360008301526132d581612e74565b9050919050565b600060208201905081810360008301526132f581612e97565b9050919050565b6000602082019050818103600083015261331581612eba565b9050919050565b6000602082019050818103600083015261333581612edd565b9050919050565b6000602082019050818103600083015261335581612f00565b9050919050565b6000602082019050818103600083015261337581612f23565b9050919050565b6000602082019050818103600083015261339581612f46565b9050919050565b600060208201905081810360008301526133b581612f69565b9050919050565b600060208201905081810360008301526133d581612f8c565b9050919050565b60006020820190506133f16000830184613021565b92915050565b600060808201905061340c6000830187613021565b818103602083015261341e8186612c66565b905061342d6040830185612c1e565b61343a6060830184612ae5565b95945050505050565b60006080820190506134586000830187613021565b818103602083015261346a8186612c66565b90506134796040830185613021565b6134866060830184612ae5565b95945050505050565b60006134996134aa565b90506134a582826137a3565b919050565b6000604051905090565b600067ffffffffffffffff8211156134cf576134ce6138db565b5b6134d88261390a565b9050602081019050919050565b600067ffffffffffffffff821115613500576134ff6138db565b5b6135098261390a565b9050602081019050919050565b6000819050602082019050919050565b6000819050602082019050919050565b600081519050919050565b600081519050919050565b600081519050919050565b600081519050919050565b6000602082019050919050565b6000602082019050919050565b600082825260208201905092915050565b600082825260208201905092915050565b600082825260208201905092915050565b600082825260208201905092915050565b600082825260208201905092915050565b600081905092915050565b60006135e782613713565b91506135f283613713565b9250827fffffffffffffffffffffffffffffffffffffffffffffffffffffffffffffffff038211156136275761362661384e565b5b828201905092915050565b600061363d82613713565b915061364883613713565b9250826136585761365761387d565b5b828204905092915050565b600061366e82613713565b915061367983613713565b92508282101561368c5761368b61384e565b5b828203905092915050565b60006136a2826136f3565b9050919050565b60006136b4826136f3565b9050919050565b60008115159050919050565b60007fffffffff0000000000000000000000000000000000000000000000000000000082169050919050565b600073ffffffffffffffffffffffffffffffffffffffff82169050919050565b6000819050919050565b600061372882613713565b9050919050565b82818337600083830152505050565b60005b8381101561375c578082015181840152602081019050613741565b8381111561376b576000848401525b50505050565b6000600282049050600182168061378957607f821691505b6020821081141561379d5761379c6138ac565b5b50919050565b6137ac8261390a565b810181811067ffffffffffffffff821117156137cb576137ca6138db565b5b80604052505050565b60006137df82613713565b91507fffffffffffffffffffffffffffffffffffffffffffffffffffffffffffffffff8214156138125761381161384e565b5b600182019050919050565b600061382882613713565b915061383383613713565b9250826138435761384261387d565b5b828206905092915050565b7f4e487b7100000000000000000000000000000000000000000000000000000000600052601160045260246000fd5b7f4e487b7100000000000000000000000000000000000000000000000000000000600052601260045260246000fd5b7f4e487b7100000000000000000000000000000000000000000000000000000000600052602260045260246000fd5b7f4e487b7100000000000000000000000000000000000000000000000000000000600052604160045260246000fd5b6000601f19601f8301169050919050565b7f4552433732313a207472616e7366657220746f206e6f6e20455243373231526560008201527f63656976657220696d706c656d656e7465720000000000000000000000000000602082015250565b7f4552433732313a207472616e736665722066726f6d20696e636f72726563742060008201527f6f776e6572000000000000000000000000000000000000000000000000000000602082015250565b7f4552433732313a20746f6b656e20616c7265616479206d696e74656400000000600082015250565b7f4552433732313a207472616e7366657220746f20746865207a65726f2061646460008201527f7265737300000000000000000000000000000000000000000000000000000000602082015250565b7f4552433732313a20617070726f766520746f2063616c6c657200000000000000600082015250565b7f4552433732313a206f70657261746f7220717565727920666f72206e6f6e657860008201527f697374656e7420746f6b656e0000000000000000000000000000000000000000602082015250565b7f4552433732313a20617070726f76652063616c6c6572206973206e6f74206f7760008201527f6e6572206e6f7220617070726f76656420666f7220616c6c0000000000000000602082015250565b7f506f7374206861736820646f6573206e6f742065786973740000000000000000600082015250565b7f4552433732313a2062616c616e636520717565727920666f7220746865207a6560008201527f726f206164647265737300000000000000000000000000000000000000000000602082015250565b7f4552433732313a206f776e657220717565727920666f72206e6f6e657869737460008201527f656e7420746f6b656e0000000000000000000000000000000000000000000000602082015250565b7f45524337323155524953746f726167653a2055524920736574206f66206e6f6e60008201527f6578697374656e7420746f6b656e000000000000000000000000000000000000602082015250565b7f496e76616c696420706f73742069640000000000000000000000000000000000600082015250565b7f4552433732313a206d696e7420746f20746865207a65726f2061646472657373600082015250565b7f45524337323155524953746f726167653a2055524920717565727920666f722060008201527f6e6f6e6578697374656e7420746f6b656e000000000000000000000000000000602082015250565b7f4552433732313a20617070726f76656420717565727920666f72206e6f6e657860008201527f697374656e7420746f6b656e0000000000000000000000000000000000000000602082015250565b7f4552433732314d657461646174613a2055524920717565727920666f72206e6f60008201527f6e6578697374656e7420746f6b656e0000000000000000000000000000000000602082015250565b7f4552433732313a20617070726f76616c20746f2063757272656e74206f776e6560008201527f7200000000000000000000000000000000000000000000000000000000000000602082015250565b7f4d757374206f776e20746865206e667420796f752077616e7420746f2073656c60008201527f65637420617320796f75722070726f66696c6500000000000000000000000000602082015250565b7f43616e6e6f742074697020796f7572206f776e20706f73740000000000000000600082015250565b7f4d757374206f776e206120646563656e74726174776974746572206e6674207460008201527f6f20706f73740000000000000000000000000000000000000000000000000000602082015250565b7f4552433732313a207472616e736665722063616c6c6572206973206e6f74206f60008201527f776e6572206e6f7220617070726f766564000000000000000000000000000000602082015250565b613ebb81613697565b8114613ec657600080fd5b50565b613ed2816136bb565b8114613edd57600080fd5b50565b613ee9816136c7565b8114613ef457600080fd5b50565b613f0081613713565b8114613f0b57600080fd5b5056fea2646970667358221220e6e50bed6d6b16471d3c56c748278b8d30cff964b17dd823e090d90acc593e3f64736f6c63430008040033",
  "linkReferences": {},
  "deployedLinkReferences": {}
}